:400000000080002011000000111000001110000008B5044B1A6803F53F5302331A6001F017F800BFFA46004010B5054C237833B9044B13B10448AFF300800123237010BD25
:400040008081FF1F0000000040670000084B10B51BB108490848AFF300800848036803B910BD074B002BFBD0BDE81040184700BF000000008481FF1F40670000C880FF1F44
:40008000000000000122014B1A7070479C81FF1F0122014B5A7070479C81FF1F08B501F05DF8034B186001F041F801F077F808BDC081FF1F08B50122034B9A7002F0B4F8DD
:4000C000024B187008BD00BF9C81FF1FBC81FF1F08B501F015F94FF4FA7001F017FB08BD08B50021632001F087FA002001F0E0FA0A2001F00BFB0C2001F0DAFA01F0BCFA69
:4001000008BD00BFF8B504460D461646431EDBB2032B00D901246B1EDBB2132B00D901250021632001F068FA002001F0C1FA0A2001F0ECFA032001F0BBFA0A2001F0E6FAA0
:40014000204601F0B5FA0A2001F0E0FA284601F0AFFA013C6FF0130303FB04F35D1B5135002407E00A2001F0D1FA387801F0A0FA0134013D3719335D0BB1002DF2DC01F0B0
:400180007BFAF8BD08B5034801F05AF801F030F808BD00BF9D00000008B5012001F05EF80A2001F0C9FA002001F058F808BD00BF08B50F4B1868C0F5803003F009FD08A308
:4001C000D3E9002303F07AFD07A3D3E9002303F075FD0022074B03F071FD04F067F808BD5BD03B4E51B8AE3E00000000009AE040C081FF1F0000E03F08B5FFF7CDFF462015
:4002000001F084FAFFF7D4FF08BD00BF08B501F037FB08BD08B501F0CDFA08BD0000000070B50E1F0A3803F0E3FC00220E4B03F06FFE04460D46304603F0DAFC22462B462D
:4002400003F08AFB06A3D3E9002303F037FD02F0AFF80022054B03F031FD70BDAFF30080EF39FAFE422EE63F0000284000807B4008B502460B4600200D4903F049FE08A3D3
:40028000D3E9002303F01AFD07A3D3E9002303F03FFE03F0EBFF013080B208BDAFF300800000000065CDCD415655555555D544400000F03F38B51546FFF7B2FFFFF7D8FF47
:4002C000044601F085FAB4FBF5F080B201F086FA38BD00BF70B506460D4600240DE0FFF795FF02220421305DFFF7E4FF4FF4FA7001F00CFAFFF78EFF0134AC42EFDB70BD0A
:4003000008B501F0CBFA01F0BBFC08BD08B501F0D5FA142001F0FAF901F0C6FC002001F0CBFC01F0E1FC03F063FC0022024B03F0C5FC03F0BBFF08BD0000D43E08B501F048
:4003400095FE01F015FF01F09FFE01F01FFF08BD08B543F68C4001F037FE08BD08B543F68C4001F0B3FE08BD08B544F6382001F02BFE08BD08B544F6382001F0A7FE08BDD5
:400380002DE9F04FA1B062B66E4801F089FF6E4801F0C8FF6D4801F0EDFF01F037FFFFF797FEFFF79DFEFFF7EDFEFFF7A9FFFFF7C5FFFFF7D9FFFFF7DDFF4FF47A7001F016
:4003C000A5F900263446B346B046029603960B960A9605965E4B049302E002245C4B04930D2CFDD8DFE814F00E003A00C20030014F0285021803BA025D03D903E503F10362
:40040000FF030D04534B9B7813F0FF0FE8D00022504B9A70504B1B78412B0BD01BAC4F4F0FCF0FC40FCF0FC497E8030084E803000D24D5E7412001F00DFFFFF751FE484A19
:4004400001210846FFF75EFE4FF47A7001F05EF9012400230B930A930593C1E73D4B1B7813F0FF0F09D000223A4B1A70FFF738FE3C4A01210846FFF745FE059B43B10A9BB8
:4004800033B10B9B23B1029B13B9039B002B4AD0304B9B7813F0FF0FA2D000222D4B9A702D4B1B78433B312B39D8DFE803F0203838343838383838383827382E3838382C80
:4004C000383838383838383838383838383838383838383838383838383838323838383020AA1A44002102F8481C013300E00023022BF5DD06244FF0000810E00023069310
:40050000082498460BE00A2409E0092407E00C2405E00B2403E00023079307249846412001F098FE5CE7FFF7DBFD0F4A01210846FFF7E8FD4FF47A7001F0E8F800260224C7
:400540004EE700BFB5000000850000009100000000FF7F479C81FF1FBC81FF1F48670000706700008C6700009C6700009A4B1B7813F0FF0F11D00022974B1A70FFF73CFEBD
:400580000490FFF7ADFD954A16AB07CA03C31A7016AA01210846FFF7B5FD9149049804F031F828B10136F6B2FFF79AFD079D0324894B9B7813F0FF0F3FF412AF0022864BEC
:4005C0009A70884B1B78433B312B39D8DFE803F0203838343838383838383827382E3838382C383838383838383838383838383838383838383838383838383838323838AF
:40060000383020AA1A44002102F8481C013300E00023022BF5DD06244FF0000810E000230693082498460BE00A2409E0092407E00C2405E00B2403E000230793072498464B
:40064000412001F007FECBE6634B1B7813F0FF0F1FD00022604B1A70634A12210120FFF751FD6F1EBFB22A46604916A804F0C2FC16AA01210846FFF745FD069B9A1B5C49AB
:4006800016A804F0B7FC16AA01210220FFF73AFD3D46514B5B7813F0FF0F00F0D68000204D4B5870FFF732FE81460120FFF72EFE07460220FFF72AFE82464946484603F046
:4006C0004BFE4FF07E5103F047FE03F0C3FF5FFA80F98DF834903946384603F03DFE4FF07E5103F039FE03F0B5FFC7B28DF835705146504603F030FE4FF07E5103F02CFE75
:4007000003F0A8FFC0B28DF836009DF83830984209D19DF839309F4205D19DF83A30994501D14FF0010B00237DE020AA1A4412F84C2C013A092A75D8DFE802F0050C131AB6
:4007400021282F36426E03EBC3022A4908680FA9885067E003EBC302274908680FA9885060E003EBC302254908680FA9885059E003EBC302224908680FA9885052E003EBB3
:40078000C302204908680FA988504BE003EBC3021D4908680FA9885044E003EBC3021B4908680FA988503DE00FAF03EBC30107EB010E174A1068785012798EF8042031E017
:4007C0000FAF03EBC30107EB010E124A1068785012798EF8042025E09C81FF1FC06700000000C040BC81FF1FCC670000D0670000E4670000FC670000006800000468000009
:40080000086800000C6800001068000014680000186800002068000003EBC302BA4908680FA988500133022B7FF77FAF0DF14E0300930DF145030FAAB44916A804F0DAFBB8
:4008400016AA01210420FFF75DFCBBF1000F08D003210DA8FFF73EFD052504244FF0000BBEE5002D7FF4BCAD03210DA8FFF732FD4FF4FA6000F04AFF069BB3427FF4ADAD07
:4008800005252C46ACE5052D10D1FFF761FDFFF727FC9F4B16AF0FCB07C727F8023B1B0C3B7016AA01210846FFF72CFC994B1B7813F0FF0F04D00022964B1A70013DADB232
:4008C000002D7FF48DADFFF74FFDFFF709FC924B16AC0FCB07C424F8023B1B0C237016AA01210846FFF70EFC002602248B4B049376E5052D11D1FFF731FDFFF7F1FB16AF67
:40090000DFF840E2BEE80F000FC7DEF800303B8016AA01210846FFF7F5FB7E4B1B7813F0FF0F04D000227B4B1A70013DADB2002D7FF456ADFFF71EFDFFF7D2FB16AC784E0D
:400940000FCE0FC43368238016AA01210846FFF7D9FB00260224714B049341E56D4B9B7813F0FF0F3FF43CAD00226A4B9A706D4B93F800A0AAF13003DBB2092B10D9BAF1EB
:40098000660F0DD01BAC684F0FCF0FC40FCF0FC497E8070003C42270FFF7A2FB0D2437E0BAF1660F0FD1FFF79BFB604A01210846FFF7A8FB4FF47A7000F0A8FEFFF790FBC8
:4009C00001240B9424E0AAF1300A08F10107FFB2404603F0FDF802460B460020544901F063FD80468946504603F002F942464B4603F064F980468946079803F0F9F8424671
:400A00004B4602F0A9FF03F031FC83B20793B846412001F01FFCE3E43E4B9B7813F0FF0F3FF4DEAC00223B4B9A70B8F1030F0CD91BAC404F0FCF0FC497E8030044F8040BDA
:400A40002180FFF74DFB0D2427E0364B1B78632B1AD1B8F1020F07D81BAC374F0FCF0FC43B6823800D2418E0FFF73AFB334A01210846FFF747FB4FF47A7000F047FEFFF724
:400A80002FFB0124059408E008F1010220A988442F3B08F8483C5FFA82F8412001F0DAFB9EE41C4B9B7813F0FF0F3FF499AC0022184B9A701B4B1F78A7F13003DBB2092B50
:400AC0000FD96E2F0DD01BAC174F0FCF0FC40FCF0FC497E8070003C42270FFF701FB0D2457E06E2F30D1FFF7FBFA154A01210846FFF708FB4FF47A7000F008FEFFF7F0FA78
:400B000001240A9445E000BF286800002C6800003C6800009C81FF1F4C68000000FF7F4770680000BC81FF1F84680000B068000000002440C4680000DC680000F06800002F
:400B4000086900005C680000303F08F101095FFA89F9404603F03CF802460B4600203A4901F0A2FCCDE90801384603F041F8DDE9082303F0A3F807468846069803F038F8B7
:400B80003A46434602F0E8FE03F070FBC3B20693C846412001F05EFB22E4FFF7A1FA2B4A01210846FFF7AEFAFFF7D2FB0124029416E4FFF795FA264A01210846FFF7A2FAA6
:400BC000FFF7CCFB012403940AE4FFF789FA214A01210846FFF796FAFFF7C6FB012400230293FFF7FDBBFFF77BFA1B4A01210846FFF788FAFFF7BEFB012400230393FFF737
:400C0000EFBB012001F068FB1BAA01210846FFF779FA124A01210420FFF774FA104B9B7813F0FF0F3FF4DCAB00220D4B9A700D4B1B78532B7FF4D4AB104601F04DFBFFF754
:400C40004FFA0124FFF7CCBB000024401C6900002C6900004069000050690000646900009C81FF1FBC81FF1FFEE700BFF0B40022174611E050F82760F3B226F0FF0608E017
:400C800001EB420511F812406D78A5550132013BDBB2002BF4D10137202FEBD9F0BC7047084B1B78DBB203F00701074A11701B09013213704022054B1A704422A3F2E223D7
:400CC0001A707047CF0100496E580040585B004008B50A46002103F014FD08BD08B503F005FD08BD38B500243C4B1C80502202331A70152202331A801823394A137017224E
:400D000038490A8002310B7002310A80364A1370192502321580023213704FF4A672334B1A801B23324A137040F2E731023211800232137004222F492F48FFF7CFFF022209
:400D40002E4B1A7008224FF040231A70032103F5007319702A4B1B78DBB22A490B702A4B1A8041F25122023B1A800CE0274B1B7803F0010343EA440404F003044FF4F070F8
:400D800001F006FB013D0DB1032CEFD115B90320FFF76AFF1E4B4FF480721A8007221A7000221C490A704820023108701A700222033B1A7004220A331A70174A137843F085
:400DC0007F031370013A137843F001031370013A137843F08003137038BD00BF8040004086400040884000408E40004094400040964000409C090048004100400043004084
:400E000008010049A146004022420040254200400440004006400040A2430040022814D810B44000C0B2094B53F820101A18147E0A7822430A700130C0B253F820201844B5
:400E4000017E13780B43137010BC70477C690000022816D810B44000C0B20A4B53F820101A18147E0A7822EA04020A700130C0B253F820201844017E137823EA01031370D7
:400E800010BC70477C690000012809D8054B03EB8002126A184490F8281013780B431370704700BF7C69000001280AD8054B03EB8002126A184490F82810137823EA0103B2
:400EC000137070477C69000038B572B63B4A137843F00403137000240BE0394863001A19510001440A46098ED06AFFF7F1FE0134E4B2072CF1D900240BE03149A30018190A
:400F0000420088180622016EC06DFFF7E7FE0134E4B2002CF1D02B494FF09040FFF7A6FE0A25294B1D70294A03F52B43D5331A60274A137843F0020313701032137843F019
:400F400002031370234C237843F040032370A2F58632513A137843F01003137008221E491E48FFF7BBFE2A461D491E48FFF7B6FE08221D491D48FFF7B1FE08221C491D488E
:400F8000FFF7ACFE08221C491C48FFF7A7FE1C4A137843F0080313701A4D61232B70FFF7A1FE81232B700122174B1A70FFF778FE0E2221461548FFF791FE38BDE8460040A0
:400FC0007C6900008400004883580040040404C403500140A0430040700900480251004078090048C051004084090048F25100408C090048125100409409004832510040B0
:40100000224300400048004004000840B043004008B503F03FFB03680C2B00D1FEE7FEE708B5094B1A681044084BC31AB3F5007F02DC054B186005E003F02CFB0C23036068
:401040004FF0FF32104608BDCC80FF1FE081FF1F08B5104E104D16E029686B68AC68002204E051F8040B43F8040B0432A242F8D1E868002203E0002143F8041B04328242C1
:40108000F9D11035013E002EE6D103F009FBFFF777F9FEE701000000B86B000008B5104A104B1A60104A136843F40073136000230AE0032B03D80D4A52F8231000E00C499A
:4010C0000C4A42F8231001332F2BF2D90A4B1A780A4B1A70074A0A4B1A60FFF7F5FE08BD0004FA050CED00E014ED00E000000000111000000080FF1FBC760040C080FF1FF4
:4011000008ED00E0024A137843F080031370704777640040014B1870704700BF84640040014B1878704700BF64640040014B1878704700BF77640040014B1880704700BF65
:401140004C680040014B188880B270478C680040014B1880704700BF0C680040024B1B78024B188880B27047066400408C680040024A137843F0100313707047776400405E
:4011800000F00300044B1A7802F0FC021A701A7810431870704700BF7764004008B501E0FFF7D0FFFFF7BCFF10F0080FF8D108BD08B54FF6FF70FFF7BFFF4FF6FF70FFF75B
:4011C000C7FF01F0EDF8094A137843F01003137001F0EAF8FFF7CCFF0020FFF7D1FFFFF7DDFF0220FFF796FF08BD00BF9464004008B5054B1B7823B9FFF7DAFF0122024B3C
:401200001A70FFF77FFF08BD9F81FF1F014B1B68D864704708ED00E04001C0B2014B1870704700BF03E400E00822014B1A60704700E100E00822014B1A60704780E100E002
:4012400010B50446FFF7F6FF2046FFF7DFFF0720FFF7E2FFFFF7E8FF10BD00BF044A137803F0BF03800100F040001843107070470051004038B50222114B1A7081220E3B8E
:401280001A70082202331A700F2511331D70002401331C704FF400420A4B1A600721284600F068FA0849284600F050FA1022074B1A70074B1C70074B1C70074B1C7038BD00
:4012C000D649004080E100E029130000C481FF1FCA81FF1FD281FF1FC881FF1F08B501F05FF8064A137843F0040313701032137843F00403137001F057F808BDA54300401A
:4013000008B5074B1B7823B9FFF7B4FF0122044B1A70FFF7E3FF4FF40042024B1A6008BDA081FF1F00E100E038B5A54B1C78A54B1B7813F0400F00F03A81E4B214F0010F06
:4013400000F01D819F4B1B78453B052B00F21481DFE813F006008200120112010600DF0004F0DF0504F00A04082C42D1954B1B78DBB2452B35D1944B1B7813F0FF0F10D0D4
:40138000924B1B681B78DBB2914A137004228C4B1A7001228F4B1A7046228A4B1A702C46EDE08D4B1B7813F0020F0DD08B4A137843F00A0313706022824B1A704FF400425E
:4013C000874B1A602C46DAE0864A137843F0100313701022844B1A700422023B1A702C46CDE00022764B1A704A22764B1A702C46C5E00A2C2BD1794A137843F0A0031370A6
:40140000754B1B7813F0020F14D06E4B1B7813F0080F01D0092300E00A23704A11780B4313706022674B1A704FF400426C4B1A602C46A4E06B4A137843F010031370102238
:40144000694B1A700422023B1A702C4697E0002000F05AF92C4692E014F0020F36D15D4B1A78D2B2584B1B78DBB29A4210D2594A1378DBB255490968CB5CDBB254490B7020
:4014800004214F4B197013780133DBB2137076E0514B1B7813F0020F0CD0504A137843F00A0313706022474B1A704FF400424C4B1A6064E04B4A137843F010031370102225
:4014C000494B1A700422023B1A7058E0424B1B7813F0020F0CD0414A137843F09A0313706022384B1A704FF400423D4B1A6046E03C4A137843F01003137010223A4B1A70D9
:401500000422023B1A70354A137843F09003137035E0364A1378DBB2354908682C490978C9B2C15413780133DBB213701278D2B2304B1B78DBB29A4203D21022204B1A70FA
:401540001DE0254B1B7813F0020F0CD0234A137843F00903137060221A4B1A704FF400421F4B1A600BE01F4A137843F0100313700022134B1A7002E0002000F0C5F814F082
:40158000200F1CD00F4B1B7813F0080F01D0012300E00223114A11780B431370114A137803F0EF0313701022064B1A7038BD054B1B7813F0100F02D11022024B1A7038BD34
:4015C000D7490040C481FF1FC981FF1FD481FF1FD8490040C881FF1FD081FF1FCA81FF1F80E100E0D6490040D9490040D281FF1FCC81FF1FD181FF1F1A4B1B78DBB2102B9F
:4016000029D1194B1B7813F0080F26D14FF40042164B1A604000C0B229B140F001004922104B1A7002E045220E4B1A70104B1870012201331A700F4B1B7813F0010FFAD081
:401640000C4B1B7803F00A030A2B08D11022054B1A700320704702207047012070470020704700BFC481FF1FD949004080E100E0D8490040D74900400A4B1B7813F0040F80
:401680000ED01023074A13700421023A1170064A1370064B1B7813F0210FFAD00020704702207047D9490040C481FF1FD7490040114B1B7813F0040F1BD0104B18700422E1
:4016C000013B1A7046220E4B1A700E4B1B7813F0010FFAD00B4B1B7813F0020F04D16022074B1A70002070476022054B1A70032070470220704700BFD9490040D849004078
:40170000C481FF1FD749004001BE704710B5044605E0084B186800F03BFEA4F50044B4F5004FF6D8034B586800FB04F000F030FE10BD00BFD080FF1F08B5034B1B7A00FB2D
:4017400003F000F025FE08BDD080FF1F70B504460E46074B1D681F2802D90020FFF7D4FF04F01F04103455F8240045F8246070BD08ED00E038B504460D46072902D9002047
:40178000FFF7C2FF1F2C02D90020FFF7BDFF04F01F0000F1604000F564406D01EDB2057038BD00BF024A137843F080031370704774650040024A137803F07F0313707047A1
:4017C00074650040014B1880704700BF08680040014B1880704700BF88680040014B1880704700BF48680040014B1870704700BF85640040014B1878704700BF6564004024
:40180000014B188880B27047A868004008B501E0FFF7F6FFFFF7EEFF10F0100FF8D108BD10B5154A137803F0C00343F00B031370E03A137843F001031370104C237843F0B8
:40184000010323704DF21250FFF7BCFF4DF21250FFF7BEFF41F6BC20FFF7C0FF0020FFF7C3FF00F09DFD237843F01003237000F09BFDFFF7CBFF10BD746500409564004026
:4018800008B5054B1B7823B9FFF7CAFF0122024B1A70FFF787FF08BDA181FF1F10B5002404E02046FFF7D4FA0134E4B2022CF8D9FF22014B1A7010BDE080FF1F10B5044660
:4018C000FFF7ECFF2046FFF7A9FA014B1C7010BDE080FF1F10B59DF80840012C51D1013809282ED8DFE800F0052D2D052D2D0F192D230F2B03D92548007840B222E024483C
:40190000007840B21EE00F2B03D92248007840B218E02148007840B214E00F2B03D91F48007840B20EE01E48007840B20AE00F2B03D91C48007840B204E01B48007840B272
:4019400000E0002001EB401101FB02F1C90B8AB20D2B0BD8C3F10E0289B211418AB2611E124800EB810101338B7005E0631E0F4901EB83030F219970013C0C4B23F82420B2
:4019800010BD0020FFF7C0FE10BD00BF180100491C010049190100491D0100491A0100491E0100491B0100491F010049A481FF1FF8B5074600F0F4FC06460D4D2B7843F035
:4019C00003032B700B4C237843F0030323700A4B1F700320FFF7B0FE2B7803F0FC032B70237803F0FC032370304600F0DDFCF8BDF8460040F946004092580040F8B50022A3
:401A0000304B1A7101285BD178222F4B1A70002402331C70092201331A707F232B4A13700132147001321370294B1C7001331C7001331C7001250A331D70502203F5276374
:401A40001A700A2701331F702C2201331A7001331C70442203331A70482201331A7001331D70022602331E70122201331A70282201331A70EB2201331A705220FFF798FF5E
:401A80005822144B1A7001331C70052205331A7001331E7001331C7001331C70204600F06BF90D4A0D4B1A602946304600F088F92946384600F008FA09491D20FFF746FEF7
:401AC000F8BD00BFA481FF1F004E0040044E0040084E00409458004033330300D881FF1F551D0000F0B583B0274D01272F70274E00247471102000F051F9102000F0D2F915
:401B000007211D20FFF736FE0422214B1A7001331C7007331C701F4A137843F0180313701D4B1C7003F2F5231C7001331C700A22A3F209331A7001331C7002331C705B22DD
:401B400005331A705E2201331A7004331C701423124A137000974FF4004248F6F0510220FFF7B8FE2B78013B06EB83039A780C4B1A702B78013B36F823200A4B1A802878FB
:401B8000FFF73CFF03B0F0BDE180FF1FA481FF1F96580040075B004093580040014E00400E4E00400C4E004070B500F0F9FB06462A4B1B782A4B1A7842F001021A701A785D
:401BC00042F010021A7010331A7842F001021A701A7842F010021A70224D2B7843F002032B70214C237843F0020323701F4A137843F0030313700320FFF79EFD2B7803F071
:401C0000FD032B70237803F0FD032370184A137843F0060313707A22164B1A70164A137843F0010313701032137843F0010313700F3A137843F0010313701032137843F0FB
:401C4000010313704FF000530C4A1360A2F5C0721360304600F0A8FB70BD00BFE180FF1FAA430040F8460040F9460040915800407758004082580040A143004080E200E0F0
:401C800008B5084B9B794BB9064BDB7913F0FF0F01D1FFF727FF0122024B9A71FFF784FF08BD00BFA481FF1F024A137843F0010313707047004E0040094B1B7913F0FF0FCE
:401CC00003D0074B5B79DBB203E0064B1B7803F00103012B01D00028EED01846704700BFA481FF1F014E0040154B1B7803F00303012B07D8134B1888023B1B889BB243EAC8
:401D0000004013E0022B0AD10E4B1888023B1B7843EA00430C4A107843EA002006E00B4B188883B2074A108843EA0040084B1B7913F0FF0F02D00022054B5A71704700BF20
:401D4000144E0040124E0040114E0040104E0040A481FF1F704700BF10B5002404E02046FFF7A2F80134E4B2012CF8D9FF22014B1A7010BDE280FF1F10B50446FFF7ECFF6B
:401D80002046FFF781F8014B1C7010BDE280FF1F014B188880B2704780400040034B1A7800F0F80010431870704700BF82400040024B187800F00700704700BF82400040ED
:401DC00070B505460E46FFF7F3FF0446FFF7E0FFA84256D02B4B1B7803F0010294B900B185B938B9284B1D80284A137803F0BF03137070BD254A137843F040031370224B0A
:401E00001D8070BD22B3002321490B7001240F310C7004310B700C390B7803F07F030B701A4B1B7813F0080F00D08DB9194B18800721013B1970164B1B7813F0010FFAD1CF
:401E400010490B7803F0FE030B700021104B19700C4B1B7813F0010F0DD00E4B1D800EB1032200E001220A4B1A70094B1B7813F0010FFAD170BD044B1D8002490B7813437A
:401E80000B7070BDA243004080400040824000400140004002400040014B188880B2704700410040034B1A7800F0F80010431870704700BF02410040024B187800F007008A
:401EC000704700BF0241004070B505460E46FFF7F3FF0446FFF7E0FFA84256D02B4B1B7803F0010294B900B185B938B9284B1D80284A137803F0BF03137070BD254A137876
:401F000043F040031370224B1D8070BD22B3002321490B70012413310C7004390B7008390B7803F07F030B701A4B1B7813F0080F00D08DB9194B18800721013B1970164BD1
:401F40001B7813F0010FFAD110490B7803F0FE030B700021104B19700C4B1B7813F0010F0DD00E4B1D800EB1032200E001220A4B1A70094B1B7813F0010FFAD170BD044BC9
:401F80001D8002490B7813430B7070BDA143004000410040024100400140004002400040024A137843F080031370704777650040014B1880704700BF0C6A0040014B1880B6
:401FC000704700BF8C6A0040014B1880704700BF4C6A0040014B1870704700BF87650040014B1878704700BF67650040014B188880B27047AC6A004008B501E0FFF7F6FF5D
:40200000FFF7EEFF10F0100FF8D108BD10B5154A137803F0C00343F00B0313701F32137843F001031370104C237843F00103237044F61F60FFF7BCFF44F61F60FFF7BEFFBA
:402040004FF47A70FFF7C0FF0020FFF7C3FF00F0A7F9237843F01003237000F0A5F9FFF7CBFF10BD776500409765004008B5054B1B7823B9FFF7CAFF0122024B1A70FFF704
:402080008FFF08BDB081FF1F054A137843F0080313701032137843F008031370704700BFA2430040024A137843F080031370704775650040014B1880704700BF086A0040CD
:4020C000014B1880704700BF886A0040014B1880704700BF486A0040014B1870704700BF85650040014B1878704700BF65650040014B188880B27047A86A004008B501E073
:40210000FFF7F6FFFFF7EEFF10F0100FF8D108BD10B5154A137803F0C00343F00B0313701F32137843F001031370104C237843F00103237044F61F60FFF7BCFF44F61F6081
:40214000FFF7BEFF4FF47A70FFF7C0FF0020FFF7C3FF00F025F9237843F01003237000F023F9FFF7CBFF10BD756500409565004008B5054B1B7823B9FFF7CAFF0122024BD8
:402180001A70FFF78FFF08BDB181FF1F054A137843F0040313701032137843F004031370704700BFA24300407222094B1A70202203F581731A700622A3F5B1731A7047223F
:4021C00010331A70002203F24F131A70704700BF8964004010B500F0E3F804460A4A137843F02003137002F58172137843F010031370033A137843F01003137000F05EF8C5
:40220000204600F0D1F810BD9964004008B5054B1B7823B9FFF7C8FF0122024B1A70FFF7D9FF08BDB281FF1F084B1B78DBB213F0200F06D0064A1078C0B213F01E0F02D196
:402240007047002070470020704700BF6B65004048650040034B1B7813F0040FFAD1024B187070476865004049650040014B1B685864704708ED00E04001C0B2014B187056
:40228000704700BF01E400E00222014B1A60704700E100E00222014B1A60704780E100E010B50446FFF7F6FF2046FFF7DFFF0720FFF7E2FFFFF7E8FF10BD00BF054A13782A
:4022C00043F0100313701032137843F010031370704700BFA2430040044A137803F07F03C001C0B218431070704700BF00510040014B1B689864704708ED00E04001C0B277
:40230000014B1870704700BF02E400E00422014B1A60704700E100E00422014B1A60704780E100E010B50446FFF7F6FF2046FFF7DFFF0720FFF7E2FFFFF7E8FF10BD00BFAA
:40234000014B1B681864704708ED00E04001C0B2014B1870704700BF00E400E00122014B1A60704700E100E00122014B1A60704780E100E010B50446FFF7F6FF2046FFF72D
:40238000DFFF0720FFF7E2FFFFF7E8FF10BD00BF0230800803D000BF01380046FCD17047EFF3108072B6704780F31088704700BF2DE9F0438BB006460F4600F00DFADFF8C4
:4023C000E480044698F900300D46013337D03046394601F0A3F9002831D02BA3D3E900233046394601F0FAFE814668BB28A3D3E900233046394601F0D3FE00B398F90030EB
:40240000254C002000210422022BCDF82090CDE90467CDE90267CDE906018DE814002CD0684601F081F940B3089B1BB102F032F9089B0360DDE906010BB0BDE8F0832046FC
:4024400029460BB0BDE8F083134898F9003003210022CDE90467CDE902670190009108922BB90E4B4FF06042CDE90623D8E70C490020022BCDE90601D2D102F00BF92223C3
:402480000360D1E7AFF30080EF39FAFE422E864051302DD5104987C0E4690000FFFFEF470000F07FE380FF1F2DE9F04F8DB006460F4614461D4600F007FBDFF81093CDE9E3
:4024C000000199F90080B8F1FF3F46D022462B462046294601F08CFE834600283DD132463B463046394601F083FE8246002874D1304639460022002301F048FE002833D073
:40250000002200232046294601F040FE8346B8B1A94A012300200021CDF828A0CDE90467CDE90645CDE9080103920293B8F1000F6CD0A24B0022104619460DB0BDE8F08F97
:402540002046294601F0EAF838B1002200232046294601F025FE00286AD1DDE90023104619460DB0BDE8F08FDDE9000101F0D6F8804600287DD0DDE900014FF0000A4FF0AA
:40258000000B52465B4601F001FE0028E5D03046394601F0C3F80028DFD02046294601F0BDF80028D9D099F90030834804210022022BCDE90467CDE90645CDE908AB039027
:4025C00002910A9204D002A801F0AEF8002847D102F060F82223036042E0002200232046294601F0D3FD0028B7D0744B724800220121B8F1020FCDF828B0CDE90467CDE9CE
:402600000645CDE9082303900291A8D002A801F08BF800287ED00A9B43B302F03BF8DDE908230A990160104619460DB0BDE8F08F614999F900300122CDF828B0CDE90467A4
:40264000CDE9064503910292002B68D05C490020022BCDE9080166D102F01CF8212303600A9B1BB102F016F80A9B0360DDE9082375E73046394601F051F800283FF47BAFBF
:402680002046294601F04AF800283FF474AFDDE900231046194601F0ABFD00286FD1464B99F90080039303230A90CDE90467CDE906450293B8F1000F3BD1DFF814B14FF0A6
:4026C000604A0022002330463946CDE908AB01F067FD00283FF477AF00223A4B2046294601F0ECFA04460D4601F026F802460B462046294601F04AFD00283DD1324B4FF020
:402700006042CDE9082399F90080B8F1020F7FF45AAF5DE701F0BEFF212303607BE700230024CDE9083402A800F0FEFF002897D192E7DFF8A0B04FF0000A002200233046CF
:402740003946CDE908AB01F02BFD0028DDD000221C4B2046294601F0B1FA04460D4600F0EBFF02460B462046294601F00FFD18B9134B0022CDE9082399F90080C5E70E4A5F
:4027800099F900900123CDF82880CDE90467CDE9064503920293B9F1000FC0D0002200231046194601F0B4FBB9F1020FCDE908013FF452AFB7E700BFE86900000000F03FAC
:4027C0000000F0FF0000E03FFFFFEFC7E380FF1FFFFFEF470000F07F2DE9F04FB04F21F00042BA4283B00C464FEAD17605460DD9AC4FBA4225D9C1F31303034340F0EF8076
:402800000EB10020014603B0BDE8F08FA64B9A4200F2CC80A54B9A4200F2DE808AA3D3E9002301F099F80022A14B01F0D7FC002800F005812846214600229D4B01F08CF822
:40284000E1E783A3D3E9002301F0C8FC002840F0CB8081A3D3E900232846214601F0A0FC0028CED17EA3D3E90023924F284607EBC608214601F022FAD8E9002301F06CF84B
:4028800001F0CCFC804601F0B3F977A3D3E9002306460F4601F012FA02460B462846214601F058F872A3D3E90023CDE900013046394601F003FA82468B46DDE90001524630
:4028C0005B4601F047F805460C462A4623462846214601F0F3F968A3D3E9002306460F4601F0ECF966A3D3E9002301F033F832463B4601F0E3F964A3D3E9002301F02CF8B9
:4029000032463B4601F0DAF961A3D3E9002301F021F832463B4601F0D1F95FA3D3E9002301F01AF832463B4601F0C8F902460B462846214601F00EF806460F4628462146CF
:4029400032463B46B8F1000F56D001F0B7F9324604460D463B4600204FF0804100F0FAFF02460B462046294601F0D2FA02460B465046594600F0EEFFDDE9002300F0EAFFA8
:402980000B4602464A49002000F0E4FF6FF47F7398454FDA08F57A7801EB085100224FF0B87301F08BF903B0BDE8F08F424B9A423FF658AF414BF4002344D3E9002300F036
:4029C000C9FF3F4BC6F101081C44CDE90001D4E900ABC6EB080870E74FF0000875E702460B4600F0B9FF0EE717A3D3E900231046194601F063F906E701F060F9002280469B
:402A000089464FF080433046394600F0A3FF02460B464046494601F07BFA2A46234600F099FF02460B460020214900F093FF03B0BDE8F08F01EB085103B0BDE8F08F80466B
:402A400043E700BFAFF300809C7500883CE4377EEF39FAFE422E864051302DD5104987C0FE822B654715F73F0000E0FE422EE63F763C7935EF39EA3DD0A4BE726937663EB8
:402A8000F16BD2C541BDBB3E2CDE25AF6A56113F93BDBE166CC1663F3E5555555555C53F412E8640FFFFEF7F422ED63FFFFF2F3E0000F03FF0690000B1A2F03F106A000048
:402AC000006A0000000000002DE9F04F23F0004858EA020993B03CD0714C21F00046A64283460D460CDD06F1404606F5801656EA0B0038D183466B49584613B0BDE8F08FBB
:402B00009A4696462BD0A045EDDC654CA04578D0002D0F468146CDE9002376DB0024BEF1000F27D15E4B984500F08B805D4B984552D0BAF1804F00F0C9835B4B9A4519D1B8
:402B4000002D17DB4846394613B0BDE8F04F00F01DBDCB465846534913B0BDE8F08F0028C1D1B045D1DD514813B0BDE8F04F00F0DDBD00244846394600F0CCFDBBF1000FBA
:402B80001CD0ED0F013D54EA050370D0484B984540F3948003F10473984540F30D84454B9E4270DDBAF1000F70DD3BA3D3E900231046194601F082F883469DE726B1394B5D
:402BC00025F040429A42DCD1BAF1000FC0F2B783002D08DB83468FE7BAF1000FC0F25E84CB46394688E706F1404606F5801656EA040300F08384012CECD101F10041834641
:402C00007AE7BEF1000F83D06DE72B4B98452CDCA3F15473984581DD4FEA2853A3F2FF33142B40F35384C3F134032EFA03F202FA03F39E457FF472AF02F00102C2F10204FA
:402C40006DE706F1404303F5801353EA0B0300F03A83184B9E4240F36783BAF1000F15DBDDE900349B46214646E7022457E74A4648463B46394600F06DFE02460B4601F023
:402C800047F9834638E7BAF1000F8EDB4FF0000B594631E7AFF300809C7500883CE4377E0000F07F0000F03F0000E03F1C6800000000E041FFFFEF3FFFFF3F43B6F5801FE0
:402CC0004FF0000205DAD04B00F0F8FF0E466FF03402DFF844E33315C6F31306A3F2FF3346F07F57764503EB020A47F4401740F3C983C64B00229E4240F304840023CDE971
:402D00000823CDE90C23C24B0022CDE906230AF1010AA7F5801700263946DDE90623CDE90A0100F017FEDDE9062380468946DDE90A0100F011FE02460B460020B44901F0E7
:402D4000E7F80A4601461346CDE90E1202464946404600F0B3FF8C4683467B1043F0005303F5002399190020CDE904BC06460F464FF0000B6146584632463B46CDE910BCF5
:402D8000CDE9020100F09AFF02460B464046494600F0E0FDDDE90623804689463046394600F0D8FD02460B46DDE90A0100F0D2FDDDE9022300F082FF02460B4640464946E5
:402DC00000F0C8FDDDE90E2300F078FFDDE90478CDE906013A4643463846414600F06EFF77A3D3E9002306460F4600F067FF76A3D3E9002300F0B0FD32463B4600F05EFF8B
:402E000073A3D3E9002300F0A7FD32463B4600F055FF71A3D3E9002300F09EFD32463B4600F04CFF6EA3D3E9002300F095FD32463B4600F043FF6CA3D3E9002300F08CFD16
:402E40003246804689463B463046394600F036FF02460B464046494600F030FFDDE9022306460F46DDE9040100F076FDDDE9062300F024FF32463B4600F06EFDDDE902679E
:402E80008046894632463B463046394600F016FF0022604BCDE90A0100F05EFD42464B4600F05AFDDDE910BC0F46DDE902015A463B46CDE90EBC5E4600F000FF0022CDE995
:402EC0000201544B3046394600F044FDDDE90A2300F040FD02460B464046494600F03AFDDDE9042300F0EAFE324680468946DDE906013B4600F0E2FE02460B464046494677
:402F000000F02AFD8046894602460B46DDE9020100F022FDDDE90EBC35A3D3E900235846CDE906BC5E460F4600F0C8FEDDE90223CDE904013046394600F00CFD02460B463B
:402F40004046494600F006FD2BA3D3E9002300F0B5FE2BA3D3E90023804689463046394600F0ACFE02460B464046494600F0F4FCDDE90C2300F0F0FC80465046894600F0AE
:402F800037FE06460F46DDE9040142464B4600F0E3FCDDE9082300F0DFFC32463B4600F0DBFCDDE906BC324658463B46DA468B4600F0D0FCDDE9082330E000BFAFF300805E
:402FC000EF4E454A287ECA3F65DBC9934A86CD3F01411DA96074D13F4D268F515555D53FFFAB6FDBB66DDB3F033333333333E33F000000E009C7EE3FFD033ADC09C7EE3F9C
:40300000F5015B14E02F3EBE0000404379B60B000000F03F000008408E98030000F09AFCDDE9042300F096FC02460B464046494600F090FC80468946DDE90012013C54EABC
:40304000050314BFD64CD74C0023CDE904340B461446CDE9023400230293DDE9024508462B461146224600F075FC52465B4600F025FEDDE9002306460F464046494600F009
:403080001DFE02460B463046394600F065FC06460F4622462B4650465946CDE9006700F00DFE0B460246804689463046394600F053FCBD4B064699420D460C4640F30E8157
:4030C00001F13F4303F5E003034340F0F081A0A3D3E90023DDE9000100F03EFC424682468B464B463046294600F034FC02460B465046594601F072F8002840F0D8812F4681
:403100003B154FF48012A3F2FE3342FA03F32344C3F30A52A54EA2F2FF321641C3F3130B0020C2F1140523EA06014BF4801B02460B46002C4BFA05FB40464946B8BFCBF1EA
:40314000000B00F007FC02460B4680468946DDE9000100F001FC4FEA0B5A00247EA3D3E9002320460D4600F0A9FD424606460F464B462046294600F0EDFB02460B46DDE998
:40318000000100F0E7FB76A3D3E9002300F096FD75A3D3E90023804689462046294600F08DFD02460B464046494600F0D5FB8046894602460B463046394600F0CDFB324625
:4031C0003B4604460D4600F0C5FB02460B464046494600F0BFFB2246804689462B462046294600F06BFD62A3D3E9002306460F4600F064FD60A3D3E9002300F0ABFB324648
:403200003B4600F05BFD5EA3D3E9002300F0A4FB32463B4600F052FD5BA3D3E9002300F099FB32463B4600F049FD59A3D3E9002300F092FB32463B4600F040FD02460B4677
:403240002046294600F086FB06460F4602460B462046294600F032FD0022CDE900014FF080433046394600F075FB02460B46DDE9000100F04DFE424606460F464B462046EF
:40328000294600F01BFD42464B4600F065FB02460B463046394600F05DFB22462B4600F059FB02460B4600203D4900F053FB8A44BAF5801FC0F237815146DDE9042300F0C4
:4032C000FDFC834618E4F346354915E44A4648463B46394600F0F2FC83460DE4344B21F000479F4240F30181324B0B4403430CD142464B4600F02EFB02460B46DDE90001BC
:4033000000F058FF00283FF4FBAE23A3D3E90023DDE9040100F0D2FC1FA3D3E9002300F0CDFC8346FFF7E8BBBAF1000FBFF6AEACDDE900349B4604F10041FFF7DDBB0246A8
:403340000B460020164900F0E3FD41E4AFF30080FE822B654715973C00000000432EE63FEF39FAFE422EE63F396CA80C615C20BED0A4BE726937663EF16BD2C541BDBB3E16
:403380002CDE25AF6A56113F93BDBE166CC1663F3E5555555555C53F59F3F8C21F6EA5010000F03F0000F0BFFFFF8F40FFFF0F00FFCB904000346F3F6F4B9E427FF763ACB2
:4033C0006E4B9E423FF7EEAB00226C4B00F0C2FA5BA3D3E9002306460F4600F06FFC5AA3D3E90023804689463046394600F066FC002282468B46624B3046394600F05EFCA8
:4034000002460B4652A1D1E9000100F0A3FA32463B4600F053FC02460B460020594900F099FA3246CDE902013B463046394600F045FC02460B46DDE9020100F03FFC46A354
:40344000D3E9002300F03AFC02460B465046594600F080FA02460B4606460F464046494600F07AFA42464B46002082468B4600F071FA02460B463046394600F06BFA804686
:403480008946D9E500220023CDE90823CDE90C233A4B00220026CDE906233DE44A463B460020364900F034FD8346FFF725BB2CA3D3E90023DDE9040100F000FC28A3D3E94B
:4034C000002300F0FBFB8346FFF716BBBEF1000F7FF44FABC3F1140348FA03F202FA03F3984524D07446FFF721BB264B9F423FF707AEDDE902349A469B462EE602460B4610
:40350000FFF7B9BB204B4FF48026CDE9062316A3D3E90023CDE9082315A3D3E90023CDE90C23FFF7F9BB5A4600F096F9C5E602F00102C2F10204FFF7F9BA00BFAFF300804D
:40354000000000604715F73F44DF5DF80BAE543E555555555555D53FFE822B654715F73F9C7500883CE4377E0000004003B8E23F06D0CF43EBFD4C3EFEFFEF3F0000F03FA4
:403580000000D03F0000E03F0000F83F2DE9F0415F4E0C46B6460E407645054600F0988000290B46024674DD5FEA215E7FD0AEF2FF3EC3F313031EF0010F43F4801363D119
:4035C00000273E4603EBD2710B444FEA6E0E520016204FF4001174189C424FEAD2754FEA420202DC1B1B66180F44013805EB43034FEA5101EFD1844620244FF0004109E092
:4036000020D003EBD275013C4FEA51012B444FEA420220D09E4201EB0C05F1DA002D05EB010C09DBB0469542A3EB060300D9013B4646521B0844E4E7BCF1000FF2DB06F102
:403640000108F0E7954217D8002D05EB010C49DB98460023ECE7134310D140087B1003F17F5303F50013FA0703EB0E57394648BF40F00040BDE8F0813346C2E7411C35D0C3
:4036800000F001031844E8E75B0003EBD273520096E721F000460643ECD079BB8E46D30AAEF1150E5205002BF9D0DD0221D4002100E001465B00DC0201F10100F9D5C0F179
:4036C000200422FA04F42343C1EB0E0E82406EE702460B4600F0F2FA2A46234600F03CF9BDE8F081BCF1000FA9DAB1E701372046B4E720244FF0FF310020E2E702460B467F
:4037000000F028F902460B4600F002FCB2E700BF0000F07F21F00041704700BF41F0004101F58010C00F70470020704700200149704700BF0000F87FF0B5C1F30A5EAEF255
:40374000FF36132E83B002460B460C464FEAD17507462EDC002E49DB3D49314103EA010010432BD049080B4053EA02070CD04FF48023132E24EA010143FA06F444EA0104FA
:403780000CBF4FF000470027324B214603EBC505D5E90045384622462B4600F0DDF8CDE90001DDE9000122462B4600F0D3F803B0F0BD332E06DDB6F5806F45D010461946BC
:4037C00003B0F0BDAEF2134E4FF0FF3121FA0EF10842F3D049080842D6D04FF0804320EA010143FA0EFE4EEA0107CDE721F0004101431946E4D0C3F3130343EA000CCCF1DB
:40380000000343EA0C0C134B640C4FEA1C3C0CF4002C03EBC5036404D3E900674CEA040132463B4600F098F8CDE90001DDE9000132463B4600F08EF8024621F0004141EA0E
:40384000C57310461946BBE700F086F8B8E700BFFFFF0F00206A0000F8B5C1F30A5604460D460B46174606BB21F00043034325D000222F4B00F022FA2E4A044697420D4664
:403880000B462ADBC1F30A56363E40F2FE723E44964228DC002E12DD23F0FF4323F4E00343EA065520462946F8BD40F2FF729642EBD102460B4600F04FF8F8BDF8BD16F134
:4038C000350F1DDA4CF250339F420CDC14A1D1E9000122462B4600F031F811A3D3E9002300F0ECF9F8BD22460FA1D1E900012B4600F024F80CA3D3E9002300F0DFF9F8BD29
:4039000023F0FF4323F4E003363643EA0655204629460022084B00F0D1F9F8BDAFF3008059F3F8C21F6EA5019C7500883CE4377E00005043B03CFFFF0000903C03F0004343
:4039400021F0004242EA0301704700BF81F0004102E000BF83F0004330B54FEA41044FEA430594EA050F08BF90EA020F1FBF54EA000C55EA020C7FEA645C7FEA655C00F0C5
:40398000E2804FEA5454D4EB5555B8BF6D420CDD2C4480EA020281EA030382EA000083EA010180EA020281EA0303362D88BF30BD11F0004F4FEA01314FF4801C4CEA11319A
:4039C00002D0404261EB410113F0004F4FEA03334CEA133302D0524263EB430394EA050F00F0A780A4F10104D5F1200E0DDB02FA0EFC22FA05F2801841F1000103FA0EF2AE
:403A0000801843FA05F359410EE0A5F120050EF1200E012A03FA0EFC28BF4CF0020C43FA05F3C01851EBE37101F0004507D54FF0000EDCF1000C7EEB00006EEB0101B1F5A7
:403A4000801F1BD3B1F5001F0CD349085FEA30004FEA3C0C04F101044FEA445212F5800F80F09A80BCF1004F08BF5FEA500C50F1000041EB045141EA050130BD5FEA4C0CF8
:403A8000404141EB010111F4801FA4F10104E9D191F0000F04BF01460020B1FA81F308BF2033A3F10B03B3F120020CDA0C3208DD02F1140CC2F10C0201FA0CF021FA02F122
:403AC0000CE002F11402D8BFC2F1200C01FA02F120FA0CFCDCBF41EA0C019040E41AA2BF01EB0451294330BD6FEA04041F3C1CDA0C340EDC04F11404C4F1200220FA04F0E1
:403B000001FA02F340EA030021FA04F345EA030130BDC4F10C04C4F1200220FA02F001FA04F340EA0300294630BD21FA04F0294630BD94F0000F83F4801306BF81F4801140
:403B40000134013D4EE77FEA645C18BF7FEA655C29D094EA050F08BF90EA020F05D054EA000C04BF1946104630BD91EA030F1EBF0021002030BD5FEA545C05D140004941E1
:403B800028BF41F0004130BD14F580043CBF01F5801130BD01F0004545F0FE4141F470014FF0000030BD7FEA645C1ABF194610467FEA655C1CBF0B46024650EA013406BFBE
:403BC00052EA033591EA030F41F4002130BD00BF90F0000F04BF0021704730B54FF4806404F132044FF000054FF0000150E700BF90F0000F04BF0021704730B54FF48064B1
:403C000004F1320410F0004548BF40424FF000013EE700BF42004FEAE2014FEA31014FEA02701FBF12F07F4393F07F4F81F06051704792F0000F14BF93F07F4F704730B5D6
:403C40004FF4607401F0004521F0004120E700BF50EA010208BF704730B54FF000050AE050EA010208BF704730B511F0004502D5404261EB41014FF4806404F132045FEAA9
:403C8000915C3FF4DCAE4FF003025FEADC0C18BF03325FEADC0C18BF033202EBDC02C2F1200300FA03FC20FA02F001FA03FE40EA0E0021FA02F11444C1E600BF70B54FF092
:403CC000FF0C4CF4E06C1CEA11541DBF1CEA135594EA0C0F95EA0C0F00F0DEF82C4481EA030621EA4C5123EA4C5350EA013518BF52EA033541F4801143F4801338D0A0FB59
:403D000002CE4FF00005E1FB02E506F00042E0FB03E54FF00006E1FB03569CF0000F18BF4EF0010EA4F1FF04B6F5007F64F5407404D25FEA4E0E6D4146EB060642EAC62130
:403D400041EA55514FEAC52040EA5E504FEACE2EB4F1FD0C88BFBCF5E06F1ED8BEF1004F08BF5FEA500E50F1000041EB045170BD06F0004646EA010140EA020081EA0301F8
:403D8000B4EB5C04C2BFD4EB0C0541EA045170BD41F480114FF0000E013C00F3AB8014F1360FDEBF002001F0004170BDC4F10004203C35DA0C341BDC04F11404C4F12005F0
:403DC00000FA05F320FA04F001FA05F240EA020001F0004221F0004110EBD37021FA04F642EB06015EEA430E08BF20EAD37070BDC4F10C04C4F1200500FA04F320FA05F020
:403E000001FA04F240EA020001F0004110EBD37041F100015EEA430E08BF20EAD37070BDC4F1200500FA05F24EEA020E20FA04F301FA05F243EA020321FA04F001F000415F
:403E400021FA04F220EA020000EBD3705EEA430E08BF20EAD37070BD94F0000F0FD101F00046400041EB010111F4801F08BF013CF7D041EA060195F0000F18BF704703F04F
:403E80000046520043EB030313F4801F08BF013DF7D043EA0603704794EA0C0F0CEA135518BF95EA0C0F0CD050EA410618BF52EA4306D1D181EA030101F000414FF0000034
:403EC00070BD50EA410606BF1046194652EA430619D094EA0C0F02D150EA013613D195EA0C0F05D152EA03361CBF104619460AD181EA030101F0004141F0FE4141F4700164
:403F00004FF0000070BD41F0FE4141F4780170BD70B54FF0FF0C4CF4E06C1CEA11541DBF1CEA135594EA0C0F95EA0C0F00F0A7F8A4EB050481EA030E52EA03354FEA013165
:403F400000F088804FEA03334FF0805545EA131343EA12634FEA022245EA111545EA10654FEA00260EF000419D4208BF964244F1FD0404F5407402D25B084FEA3202B61A06
:403F800065EB03055B084FEA32024FF480104FF4002CB6EB020E75EB030E22BFB61A754640EA0C005B084FEA3202B6EB020E75EB030E22BFB61A754640EA5C005B084FEA53
:403FC0003202B6EB020E75EB030E22BFB61A754640EA9C005B084FEA3202B6EB020E75EB030E22BFB61A754640EADC0055EA060E18D04FEA051545EA16754FEA06164FEAFF
:40400000C30343EA52734FEAC2025FEA1C1CC0D111F4801F0BD141EA00014FF000004FF0004CB6E711F4801F04BF01430020B4F1FD0C88BFBCF5E06F3FF6AFAEB5EB030CA5
:4040400004BFB6EB020C5FEA500C50F1000041EB045170BD0EF0004E4EEA113114EB5C04C2BFD4EB0C0541EA045170BD41F480114FF0000E013C90E645EA060E8DE60CEAA5
:40408000135594EA0C0F08BF95EA0C0F3FF43BAF94EA0C0F0AD150EA01347FF434AF95EA0C0F7FF425AF104619462CE795EA0C0F06D152EA03353FF4FDAE1046194622E71E
:4040C00050EA410618BF52EA43067FF4C5AE50EA41047FF40DAF52EA43057FF4EBAE12E74FF0FF3C06E000BF4FF0010C02E000BF4FF0010C4DF804CD4FEA410C7FEA6C5CA1
:404100004FEA430C18BF7FEA6C5C1BD001B050EA410C0CBF52EA430C91EA030F02BF90EA020F0020704710F1000F91EA030F58BF994208BF90422CBFD8176FEAE37040F0E8
:40414000010070474FEA410C7FEA6C5C02D150EA013C07D14FEA430C7FEA6C5CD6D152EA033CD3D05DF8040B704700BF8446104662468C461946634600E000BF01B5FFF769
:40418000B7FF002848BF10F1000F01BD4DF808EDFFF7F4FF0CBF012000205DF808FB00BF4DF808EDFFF7EAFF34BF012000205DF808FB00BF4DF808EDFFF7E0FF94BF01201F
:4041C00000205DF808FB00BF4DF808EDFFF7CEFF94BF012000205DF808FB00BF4DF808EDFFF7C4FF34BF012000205DF808FB00BF4FEA410C7FEA6C5C02D150EA013C0AD1C6
:404200004FEA430C7FEA6C5C02D152EA033C02D14FF0000070474FF0010070474FEA410212F5001215D211D56FF47873B3EB625212D94FEAC12343F0004343EA505311F066
:40424000004F23FA02F018BF404270474FF00000704750EA013005D111F0004008BF6FF0004070474FF00000704700BF4A0011D212F5001211D20DD56FF47873B3EB6252DB
:404280000ED44FEAC12343F0004343EA505323FA02F070474FF00000704750EA013002D14FF0FF3070474FF0000070474FEA4102B2F1E04324BFB3F5001CDCF1FE5C0DD9AE
:4042C00001F0004C4FEAC0024CEA5070B2F1004F40EB830008BF20F00100704711F0804F21D113F13872BCBF01F00040704741F480114FEA5252C2F11802C2F1200C10FA35
:404300000CF320FA02F018BF40F001004FEAC1234FEAD32303FA0CFC40EA0C0023FA02F34FEA4303CCE77FEA625307D150EA01331EBF4FF0FE4040F44000704701F0004085
:4043400040F0FE4040F40000704700BF80F0004002E000BF81F0004142001FBF5FEA410392EA030F7FEA226C7FEA236C6AD04FEA1262D2EB1363C1BFD218414048404140EA
:40438000B8BF5B42192B88BF704710F0004F40F4000020F07F4018BF404211F0004F41F4000121F07F4118BF494292EA030F3FD0A2F1010241FA03FC10EB0C00C3F12003F8
:4043C00001FA03F100F0004302D5494260EB4000B0F5000F13D3B0F1807F06D340084FEA310102F10102FE2A51D2B1F1004F40EBC25008BF20F0010040EA03007047490074
:4044000040EB000010F4000FA2F10102EDD1B0FA80FCACF1080CB2EB0C0200FA0CF0AABF00EBC25052421843BCBFD0401843704792F0000F81F4000106BF80F4000001320D
:40444000013BB5E74FEA41037FEA226C18BF7FEA236C21D092EA030F04D092F0000F08BF0846704790EA010F1CBF0020704712F07F4F04D1400028BF40F00040704712F13F
:4044800000723CBF00F50000704700F0004343F0FE4040F4000070477FEA226216BF08467FEA23630146420206BF5FEA412390EA010F40F4800070474FF0000304E000BF7E
:4044C00010F0004348BF40425FEA000C08BF704743F0964301464FF000001CE050EA010208BF70474FF000030AE000BF50EA010208BF704711F0004302D5404261EB410103
:404500005FEA010C02BF84460146002043F0B64308BFA3F18053A3F50003BCFA8CF2083AA3EBC25310DB01FA02FC634400FA02FCC2F12002BCF1004F20FA02F243EB020093
:4045400008BF20F00100704702F1200201FA02FCC2F1200250EA4C0021FA02F243EB020008BF20EADC7070474FF0FF3C06E000BF4FF0010C02E000BF4FF0010C4DF804CDC2
:404580004FEA40024FEA41037FEA226C18BF7FEA236C11D001B052EA530C18BF90EA010F58BFB2EB030088BFC81738BF6FEAE17018BF40F0010070477FEA226C02D15FEA5F
:4045C000402C05D17FEA236CE4D15FEA412CE1D05DF8040B704700BF844608466146FFE70FB5FFF7C9FF002848BF10F1000F0FBD4DF808EDFFF7F4FF0CBF012000205DF8D5
:4046000008FB00BF4DF808EDFFF7EAFF34BF012000205DF808FB00BF4DF808EDFFF7E0FF94BF012000205DF808FB00BF4DF808EDFFF7D2FF94BF012000205DF808FB00BFEE
:404640004DF808EDFFF7C8FF34BF012000205DF808FB00BF42000ED2B2F1FE4F0BD34FF09E03B3EB126209D44FEA002343F0004323FA02F070474FF00000704712F1610F38
:4046800001D1420202D14FF0FF3070474FF00000704700BF014B1868704700BF4481FF1F0E4B70B51E460E4C0025E41AA410A54204D056F8253098470135F8E702F06AFA57
:4046C000084B094C1E46E41AA4100025A54204D056F8253098470135F8E770BDA06B0000A06B0000A06B0000A86B000010B5431E0A44914204D011F8014B03F8014FF8E78A
:4047000010BD03460244934202D003F8011BFAE770472DE9F04788B0149F002B1E461299B8BF03F1004327F02007B6BF1E4600232D23462F1446109DDDF84CA00B7003D092
:40474000452F03D1013501E0032300E0022307AA049206AA03928DE828042246334600F003FD472F804602D1119BDB0728D5462F08EB050911D198F80030302B0AD10022A7
:40478000002320463146FFF701FD18B9C5F10105CAF80050DAF8003099440022002320463146FFF7F3FC08B9302202E0CDF81C9006E0079B994503D9591C07911A70F8E762
:4047C0004046079B159AC8EB0303136008B0BDE8F087034673B50029B8BF494203F8022BB4BF2D222B22092942701ADD0DF1070216460A2591FBF5F405FB1411092C01F1E1
:40480000300102F8011D2146F4DC3031541E02F8011CB4421A460AD214F8012B03F8012BF7E71A463024214402F8024B5970101A02B070BD2DE9F04F91B00C46DDF86880C8
:4048400016461F46054601F027FA03681846099300F0F4FB00230E93D8F800300A90073323F0070303F1080294F81890D4F800B0C8F80020D3E90023C4E91223D4F84CA01A
:40488000D4F848802AF000430B934FF0FF32A74B40460B99FFF7ACFCA0B94FF0FF32A34B40460B99FFF786FC60B90022002340465146FFF775FC10B12D2384F843309C4B1D
:4048C0009C4A0AE04246534640465146FFF790FC002800F09281984B984AB9F1470F8CBF90469846032323612BF0040323604FF0000A3DE0B9F1670F00F08A81B9F1470F69
:4049000000F0868123600193636800210DF13302059002920093424653460691CDF81090CDF80CE02846FFF7F4FE09F0DF03472B804600F08481B9F1650F0D9900F28D819E
:4049400001394A4604F150000D91FFF742FF0E9A82468318012A236100F37C812268D10700F178819DF8333013B12D2384F84330009733460FAA2146284600F09FF901300B
:4049800002D14FF0FF3096E123685A0501D4236965E0B9F1650F40F2D580D4E9120100220023FFF7F3FB78B30123654A31462846B8470130E5D00E9B0D9A9A420BDB2368AC
:4049C000D80708D423689B0740F111814FF0000804F1190906E10A9B099A31462846B8470130CED04FF0000804F11A090E9B013B9845E7DA01234A4631462846B847013021
:404A0000BFD008F10108F1E70D9B002B29DC01234B4A31462846B8470130B2D00D9B23B90E9B13B92368D907CCD50A9B099A31462846B8470130A4D04FF0000904F11A0AAE
:404A40000D9B5B42994509DA0123524631462846B847013095D009F10109F1E70E9B4246A7E00E9AA36D9A42A8BF1A46002A914606DC4FF0000A29EAE97904F11A0B11E05F
:404A80001346314642462846B8470130F1D178E701235A4631462846B84701303FF471AF0AF1010AA36DC9EB03029245F0DB08EB03090D9A0E9B9A420FDB2368DA070CD4E1
:404AC0000E9B0D9A9844C9EB08089B1A9845A8BF9846B8F1000F08DC0FE00A9B099A31462846B8470130EBD14BE743464A4631462846B84701303FF444AF4FF0000928EA6B
:404B0000E87804F11A0A09E00123524631462846B84701303FF435AF09F101090D9A0E9B9B1AC8EB03039945EEDB4BE7FFFFEF7F326A0000366A00003A6A00003E6A00009C
:404B4000426A00000E9A012A01DCDB0738D50123424631462846B84701303FF412AF0A9B099A31462846B84701303FF40AAFD4E9120100220023FFF709FB20B14FF00008C5
:404B800004F11A090EE00E9B08F10102013B19E001234A4631462846B84701303FF4F1AE08F101080E9B013B9845F1DB534604F1500231462846B84701307FF403AFE0E60A
:404BC0004246012331462846B8470130EED1D8E601234A4631462846B84701303FF4D1AE08F10108E3680F9A9B1A9845F0DBE0680F9B9842B8BF18465DE062680EA8531CDC
:404C00000DF1340E4BF480637FF474AE062201E012B90122626075E6002106910DF133018DE80C00236005904246CDF81090CDF80CE0029153462846FFF76BFD80460D9BE2
:404C4000D81C02DB626893421DDDA9F102095FFA89F970E60133236184E6B9F1660F14D10029636807DD216113B92268D2071DD501330B4419E013B92268D00701D502339F
:404C800013E0012311E04FF067090D9B0E9A934205DB22682361D10708D5013305E0002BD4BFC3F102030123134423610D9B4FF0000AA36556E611B0BDE8F08F2DE9F0477F
:404CC00091461F460A698B6806469342B8BF1346C9F8003091F843200C46DDF8208012B10133C9F800302368990642BFD9F800300233C9F80030256815F0060510D104F1D0
:404D0000190A07E00123524639463046C04701301AD00135E368D9F800209B1A9D42F1DB94F843302268003318BF012392060FD5E118302081F843005A1C94F845102244CF
:404D4000023382F8431003E04FF0FF30BDE8F08704F1430239463046C0470130F4D02268D9F80050E36802F00602042A08BF5D1B2269A3680CBF25EAE57500259342C4BFF5
:404D80009B1AED184FF000091A344D4509D00123224639463046C0470130D5D009F10109F3E70020BDE8F0872DE9F04317460A7E85B06E2A984606460C460C9B01F1430E5F
:404DC00000F0AE8011D8632A22D009D8002A00F0BB80582A40F0CA8081F84520834955E0642A1ED0692A1CD0C0E0732A00F0B08009D86F2A2ED0702A40F0B8800A6842F0A6
:404E000020020A603EE0752A24D0782A3AD0ADE01A6801F14205111D1960136884F84230A8E021681A6811F0800F02D0111D196008E011F0400F02F10401196002D0B2F96F
:404E4000003000E01368002B3CDA2D225B4284F8432037E021681A6811F0800F02D0111D196007E011F0400F02F10401196001D0138800E01368227E5C496F2A14BF0A2224
:404E800008221BE078225A4984F845202268186812F0800F00F104051D6003D1550601D5038800E00368D00744BF42F0200222601BB9226822F0200222601022002084F830
:404EC000430001E049490A226568002DA56008DB206820F0040020602BB9002D7DD175460CE0002B79D07546B3FBF2F002FB1033CB5C05F8013D03460028F5D1082A0BD126
:404F00002368DA0708D5236962689A42DEBF302305F8013C05F1FF35C5EB0E0323612EE008681A6810F0800F496903D0101D1860136808E010F0400F02F104001860136808
:404F400001D0198000E0196000232361754616E01A68111D1960156800216268284600F0A7FE08B1401B6060636804E004F1420584F8422001232361002384F84330CDF866
:404F800000803B4603AA21463046FFF797FE013002D14FF0FF3026E023692A4639463046C0470130F5D023689B0710D5002504F1190907E001234A4639463046C04701305F
:404FC000E7D00135E368039A9B1A9D42F2DBE068039B9842B8BF184605E00B7804F1420584F842308AE705B0BDE8F083446A0000556A00000EB400B54FF402719CB0ADF88B
:4050000014106FF00041049107914FF6FF711DAB02900690084853F8042BADF81610006802A9019301F03AFA029B00221A701CB05DF804EB03B070474481FF1F034613F87F
:40504000012B002AFBD1181A013870472DE9F74F03690C6980469C427FDC013C01F114074FEA840E00F1140606EB0E0357F82450019356F824300135B3FBF5F507EB0E09BE
:40508000C5B34FF0000A3846B446D34650F8043B9AB205FB02A21B0C4FEA124A05FB03A392B2C2EB0B0BBCF800204FEA134A5A441FFA83FBDCF800308145CBEB134303EB5B
:4050C000224392B242EA03424FEA234B4CF8042BDCD256F80E306BB9019B043B9E421A4602D3C8F8104005E01268043B002AF8D1013CF3E7404600F0F6FF00282BDB304667
:4051000001354FF0000E57F8042B036891B2C1EB0E0E120C99B27144C2EB134303EB214389B24FEA234EB94541EA034340F8043BE9D256F8242006EB840362B9043B9E42BB
:405140001A4602D3C8F8104005E01268043B002AF8D1013CF3E7284600E0002003B0BDE8F08F0000000000002DE9F04F456A95B08246219CCDE9022345B9102000F090FDA9
:40518000CAF82400456085600560C560DAF82430196859B15A68012393404A608B60504600F0C9FDDAF8243000221A60039BA04A002BBDBF01232360039B0023BCBF23F0C3
:4051C00000430393DDF80C80A8BF236028F000431B0D1B0593421DD142F20F73209A1360029B43B9934A944BC8F31300002814BF1846104600E09048229B002B00F0468515
:40520000C37813B100F1080300E0C31C229A136000F03CBDDDE902450022002320462946FEF7B4FF074658B1209A01231360229B002B00F01E8581481860013800F026BD5E
:4052400012AB019313AB009322462B46504600F0C5FFC8F30A56049056B1C5F3130343F07F51204641F44011A6F2FF3611971DE0139B129E1E4406F23243202B0ADD029A89
:4052800006F21240C3F1400322FA00F008FA03F3184304E0C3F12000029B03FA00F0FEF797FC0123A1F1F871013E11930022644BFEF750FB58A3D3E90023FEF7FFFC58A3AC
:4052C000D3E90023FEF748FB044630460D46FEF78FFC55A3D3E90023FEF7F0FC02460B4620462946FEF738FB04460D46FEF796FF00228346002320462946FEF751FF58B15E
:405300005846FEF775FC02460B4620462946FEF73DFF08B90BF1FF3BBBF1160F0DD8DDE90223484901EBCB01D1E90001FEF756FF30B10BF1FF3B002300E00123109300E023
:405340001090129B9E1B731E079343BFC3F10008002307934FF00008BBF1000F06DB079BCDF82CB05B440793002705E00023CBEB0808CBF100070B931E9B092B28D8052BAF
:40538000C4BF043B1E931E9BC8BF0025A3F10203D8BF0125032B20D8DFE803F0060E0204012302E0012308E000230A931F9B002B1DDD9946059321E000230A931F9B0BEB2C
:4053C000030909F10103012B0593B8BF012315E0012500231E930A9501E001230A934FF0FF390022CDF8149012231F9206E04FF001094B46CDF81490CDF87C90DAF82440FC
:4054000000226260042101F114029A421CD86268490001326260F6E761436F63A787D23FB3C8608B288AC63FFB799F501344D33F0000F07F666A00006F6A0000436A000043
:405440000000F83F806A00006168504600F03EFCDAF8243020601B680693059B0E2B00F25B81002D00F05881DDE90234BBF1000FCDE90E3430DD9F4A0BF00F034FEA2B15F8
:4054800002EBC303E80618CBCDE908340CD5DDE90E01994B05F00F05D3E90823FEF738FD0324CDE9020100E00224934E6DB1E90708D5DDE90801D6E90023FEF7FFFBCDE9BA
:4054C000080101346D100836F0E7DDE90823DDE90201FEF71DFD20E0CBF1000505B3DDE90E01844B05F00F0203EBC203D3E90023FEF7E4FBCDE902017F4E2D11002302247D
:4055000055B1EA0705D5D6E90023FEF7D7FB013401236D100836F3E71BB1CDE9020100E00224109BE3B1DDE902560022734B28463146FEF735FE98B1059B8BB1B9F1000F50
:4055400040F3E6800BF1FF330893314600226C4B2846FEF7B3FB0134CDE902014E4602E0059ECDF820B02046FEF742FBDDE90223FEF7A4FB634B0022FEF7EEF9A1F15073B4
:4055800004460C931D46D6B9DDE9020100225E4BFEF7E0F922460C9BCDE90201FEF71EFE002840F03F820C99224601F10043DDE90201FEF7F5FD002840F02B82A8E00A9A99
:4055C0004C4B711E002A49D003EBC103D3E9002300204E49FEF79CFC22462B46FEF7BAF9CDE90C01069CDDE90201FEF717FE0546FEF7FEFA02460B46DDE90201FEF7AAF982
:40560000DDE90C23303504F8015BCDE90201FEF7C7FD002840F01D83DDE9022300203749FEF798F9DDE90C23FEF7BAFD002840F0D180069BE31AB3426ADADDE90C01002227
:405640002F4BFEF73BFB0022CDE90C01DDE902012B4BFEF733FBCDE90201C4E703EBC1012246D1E900012B46FEF728FB069BCDE90C011D469C19DDE90201FEF7CFFD06462C
:40568000FEF7B6FA02460B46DDE90201FEF762F9303605F8016BAC42CDE902014FF0000222D11A4BDDE90C01FEF756F902460B46DDE90201FEF792FD002840F08B80DDE95E
:4056C0000C2300201149FEF745F902460B46DDE90201FEF765FDD8B114F8013C621E302B40F0B7821446F7E7054BFEF7E7FACDE90201C0E7806A0000586B00000000F03F65
:405700000000244000001C40000014400000E03FDDE90E34CDE90234139B002B7CDBBBF10E0F79DCAB4B03EBCB03D3E900671F9B002B14DA059B002B11DC40F06C81002255
:40574000A54B30463946FEF7B9FADDE90223FEF73BFD059D2E46002840F05F8165E1069CDDE9028932463B4640464946FEF7D0FBFEF754FD0546FEF73BFA32463B46FEF786
:405780009DFA0B46024649464046FEF7E3F805F1300E069B04F801EBC3EB040E059B73452DD102460B46FEF7D7F88046894602460B4630463946FEF7F3FC78B942464B4653
:4057C00030463946FEF7E2FC002800F04482EB0704D440E2DDF820B000E01C4614F8012C631E392A07D1069A9A42F6D1069930220BF1010B0A701A7801321A702BE2002207
:40580000764BFEF75BFA0022002380468946FEF7BDFC0028A6D01EE20A9A002A2BD01E9A012A0ADC119A12B103F2334302E0129BC3F136033D46444613E0059B5D1EAF4244
:40584000BFBF0B9BEA1B9B180B93059BB6BF2F467D1B0025002BA7BF4446059BC3EB08040023079A01211A4450469844079200F001FB064602E03D4644460A9E5CB1079B25
:40588000002B08DDA342A8BF2346079AC3EB0808E41AD31A0793002F1DDD0A9BABB18DB131462A46504600F07FFB049A01460646504600F0E8FA04990890504600F03BFA67
:4058C000089B04937A1B06D000E03A460499504600F06AFB04900121504600F0CBFA0B9B05465BB31A460146504600F05DFB1E9B0546012B18DC029B83B9039BC3F313032F
:4059000073B9039B23F000473F0D3F054FB1079B08F1010801330793012702E0002700E0029F0B9B73B100E000272B6905EB8303186900F052FAC0F1200004E01E9B012B5D
:40594000D9DD0B9F0120079B184410F01F0008D0C0F12003042B02DDC0F11C0002E006D018461C30079B8044034404440793B8F1000F05DD42460499504600F063FB0490DA
:40598000079B002B05DD29461A46504600F05AFB0546109B23B32946049800F0A4FB00281EDA00230A220499504600F0DBF90A9B0BF1FF3B0490002B00F05F8131460023BE
:4059C0000A22504600F0CEF9B9F1000F06463FDC3BE000BF806A00000000144000002440059B002B2BDC1E9B022B28DDDDF81490B9F1000F11D129464B460522504600F014
:405A0000B1F901460546049800F06DFB00280CDC03E0354600E000252E461F9B069C6FEA030B09E03546DDF820B0069B069A5C1C312313700BF1010B05960026F7E00A9BAE
:405A4000DDF8149023B9069CB2E01E9B022BCFDC002C05DD31462246504600F0F3FA06469FB17168504600F031F90446326906F10C01023292000C30FEF738FE01222146E7
:405A8000504600F0DFFA059000E00596029B069F03F00103079329460498FFF7D7FA3146044600F13008049800F01DFB059A02902946504600F033FBC36802463BB9014642
:405AC0000A90049800F00FFB0A9A034600E00123114650460A9300F02EF90A9B53B91E9A42B9079A32B9B8F1390F2AD0029B002B1CDC1DE0029A002A04DB1BD11E9ACAB980
:405B0000079ABAB9002B13DD01220499504600F099FA2946049000F0E6FA002803DC07D118F0010F04D0B8F1390F0AD004F131087C1C0CE0002B07F101040BDDB8F1390F41
:405B400003D139233B70013756E008F1010887F800806CE0069B2746E31A4B4504F8018C3BD000230A220499504600F0FBF8059B04909E424FF00A024FF00003314650464D
:405B800004D100F0EFF80646059084E700F0EAF8002306460A220599504600F0E3F8059079E700230A220499504600F0DBF8049029460498FFF74AFA069B00F1300804F8A8
:405BC000018BE31A4B45ECDB069B0596B9F1010FACBF4B4401331F46002601220499504600F030FA2946049000F07DFA002803DC15D118F0010F12D03C4614F8013C621E0A
:405C0000392B09D1069B934204D10BF1010B3123069A02E01446F0E70133137007E03C4614F8013C621E302B01D11446F8E72946504600F080F8059B6BB12EB19E4203D0C2
:405C40003146504600F077F80599504600F073F801E0DDF820B00499504600F06CF80023209A23700BF101031360229B1BB11C6001E008480AE0069808E0B9F1000F3FF7A4
:405C8000E2AE1E9B022B7FF7DEAEB1E615B0BDE8F08F00BF426A0000004870474881FF1F024B0146186800F041BB00BF4481FF1F10B5C9B202449042034605D01C780130BE
:405CC0008C42F8D1184610BD002010BD70B5456A04460E463DB91020FFF7E2FF6062456085600560C560656AEB6843B1636ADB6853F8260078B1026843F8262017E02122CB
:405D00000421204600F0B8FA636AE860DB68002BECD1002070BD012101FA06F56A1D9200204600F0A9FA0028F3D04660856000230361C36070BD70B5446A06460D463CB9CB
:405D40001020FFF7ADFF7062446084600460C4603DB1736A6A68DB6853F82210296043F8225070BD2DE9F04106460C460D691F4601F1140E0023DEF80000013381B202FB7E
:405D80000171000C0F0C02FB007089B201EB00419D424FEA10474EF8041BECDCD7B1A3689D4212DB616830460131FFF78FFF8046226904F10C01023292000C30FEF796FCA9
:405DC00021463046FFF7B7FF444604EB850301355F6125612046BDE8F081030C1B0413B90004102300E0002310F07F4F04BF0002083310F0704F04BF0001043310F0404FD6
:405E000004BF80000233002803DB420003D5581C70471846704720207047036813F007020BD0D90722D49A074BBF5B089B08036003604CBF01200220704799B209B91B0CBB
:405E4000102213F0FF0F04BF1B0A0832190704BF1B090432990704BF9B080232D90702D45B0805D00132036010467047002070472020704710B50C460121FFF727FF01226F
:405E80004461026110BD2DE9F74F14460A69236988469A42BEBF0B46A0461C46D8F81070D4F81090D8F80830D8F8041007EB09069E42C8BF0131FFF709FF00F114052B46DD
:405EC00005EB860C0022634502D243F8042BFAE704F1140208F1140102EB890301EB87070093009B0192934257D9B2F800B0BBF1000F23D08946AE464FF0000859F8044BB3
:405F0000BEF800A0A3B20BFB03A34FEA144ADEF8004043444FEA14480BFB0A84F24604EB13449BB243EA04434F454FEA14484AF8043B01D9D646E1E7CEF80480019B0432EA
:405F4000B3F802A0BAF1000F21D02C4689462B684FF00008B9F800E0B4F802B09BB20AFB0EBEA346F04443EA08434BF8043B59F8043BB4F804E01B0C0AFB03E34F4503EB36
:405F800018434FEA134801D95C46E3E763600435A7E75CF8043D13B9013E002EF9DC066103B0BDE8F08F00002DE9F843154612F0030206460F4607D0214C013A002354F8FF
:405FC0002220FFF7CFFE0746AD1036D0746A3CB91020FFF765FE7062446084600460C460D6F82480D8F808404CB940F271213046FFF740FF04460023C8F8080003604FF079
:406000000008EB070AD5394622463046FFF73BFF814639463046FFF78EFE4F466D100CD0206808B10446ECE7224621463046FFF72AFF2060C0F80080F4E73846BDE8F883DB
:40604000486B00002DE9F0470C460746914626694FEA621A56444968A368751CAB4202DA01315B00FAE73846FFF730FE002380461A4600F11401534503DA41F82320013332
:40608000F9E72AEAEA73206901EB830319F01F0904F1140101EB800E14D0C9F1200C002208689A4600FA09F0024343F8042B51F8042B8E4522FA0CF2F2D8CAF8042042B1F9
:4060C000B51C06E0043B51F8042B8E4543F8042FF9D8013D3846C8F810502146FFF72BFE4046BDE8F08703690A6910B59B1A11D192001430143183180A4453F8044D52F8F7
:40610000041D8C4202D007D3012010BD9842F4D3002010BD184610BD4FF0FF3010BD2DE9F8430C460746114620461546FFF7DBFF061E08D131463846FFF7C8FD01230361D5
:406140004661BDE8F883BCBF23462C4638466168BABF1D4601260026FFF7B8FD2B69C660266905F1140904F1140101EB860709EB830800F114054FF0000C51F8042B59F86B
:40618000044B93B29C44A3B2240CC3EB0C03C4EB124202EB23429BB24FEA224CC84543EA02428E4645F8042BE7D8BE450ED25EF8041B8AB26244131403EB114392B242EA50
:4061C00003424FEA234C45F8042BEEE755F8043D0BB9013EFAE70661BDE8F8832DE9F3411C4601219046089E099DFFF76FFDC4F31302C4F30A5407460CB142F480120192E0
:40620000B8F1000F19D002A840F8088DFFF705FE009B48B1019AC0F1200102FA01F10B43C2407B61019200E07B61019B002B14BF02210121BB61396107E001A8FFF7EDFDDE
:40624000019B01217B613961203034B1A4F2334404443460C0F1350009E0A0F2324007EB810330601869FFF7B8FDC0EB41102860384602B0BDE8F08138B502FB01F42146B7
:4062800000F054F8054618B122460021FEF739FA284638BD38B50546002944D051F8043C0C1F002BB8BFE41800F017FA1E4A1368114613B96360146030E0A3420DD9226810
:4062C000A018834201BF18685B681218226063600C6023E0A24203D813465A68002AF9D118681918A1420BD12168014458188242196013D110685268014419605A600DE00C
:4063000002D90C232B6009E021686018824201BF106852680918216062605C602846BDE8384000F0DBB938BDB881FF1F70B5CD1C25F0030508350C2D38BF0C25002D06466B
:4063400001DBA94202D90C23336046E000F0C5F9234B1C681A462146A1B10B685B1B0ED40B2B03D90B60CC18CD501EE08C420BBF63684B681360636018BF0C4615E00C46D7
:406380004968E9E7174C23681BB9304600F07AF920602946304600F075F9431C18D0C41C24F00304A0420DD12560304600F096F904F10B00231D20F00700C31A0ED05A42D4
:4063C000E25070BD211A304600F05CF90130EBD10C233360304600F081F9002070BD00BFB881FF1FB481FF1F2DE9F0478E6882469E420C46914698463ED88A8912F4906FE3
:406400003AD02568096902236F1A656905EB450595FBF3F57B1C43449D4238BF1D4653050FD52946FFF782FF064698B13A462169FEF75CF9A38923F4906343F08003A381B3
:4064400013E02A4600F04BF9064670B921695046FFF720FF0C23CAF80030A3894FF0FF3043F04003A381BDE8F08726613E44266046466561ED1BA560464528BF46464946EF
:406480003246206800F00EF9A36800209B1BA36023681E442660BDE8F08700002DE9F04F9DB003938B8980461C060D4616460DD50B695BB94021FFF739FF2860286118B9B4
:4064C0000C23C8F80030CDE040236B610023099320238DF82930DFF89CB130238DF82A3037463C4614F8013B1BB9B7EB060910D003E0252BF9D02746F3E74B463246294604
:406500004046FFF771FF013000F0A780099B4B4409933B78002B00F0A08000234FF0FF3204930793059206938DF853301A930126052221784E48FFF7BBFB671C049B38B18D
:406540004B4A3C46801A06FA00F018430490EFE7D90644BF20228DF853201A0744BF2B228DF8532022782A2A03D0079A00210A200BE0039A111D12680391002A10DA524217
:4065800043F00200079204900BE027463B780134303B092B03D800FB02320121F5E701B107923B782E2B1ED17B782A2B0AD1039B02371A1D1B680392002BB8BF4FF0FF33F0
:4065C000059310E0002319460593781C0A2407463A780130303A092A03D804FB01210123F5E703B10591032239782248FFF760FB40B14023CBEB000003FA00F0049B0137C5
:4066000018430490397806221B487E1C8DF82810FFF74EFB88B1194B33B9039B073323F007030833039314E003AB00932A46144B04A94046FEF7FEF807E003AB00932A4690
:406640000F4B04A94046FEF7AFFBB0F1FF3F824603D0099B5344099342E7AB895B0601D4099801E04FF0FF301DB0BDE8F08F00BF806B0000866B00008A6B0000354800001C
:40668000E963000038B5064C0023054608462360FAF7C6FC431C02D1236803B12B6038BDDC81FF1F884210B501EB020301D8421E0BE09842FBD28118D21AD34204D013F82D
:4066C000014D01F8014DF8E710BD994204D011F8014B02F8014FF8E710BD70477047F8B5074615460E4621B91146BDE8F840FFF71DBE1AB9FFF7CEFD2846F8BD00F015F8B5
:4067000085420ED929463846FFF710FE044650B131462A46FDF7EAFF31463846FFF7BAFD01E03046F8BD2046F8BD51F8040C0028BEBF091851F8043CC0180438704700006F
:4067400000000000000000004572726F722065737461626C656369656E646F0A0D636F6E6578696F6E20636F6E20455350333200436F6D756E69636163696F6E2045737432
:4067800061626C656369646100000000436F6E6669677572616E646F00000000436F6E66696775726163696F6E207265616C697A61646120636F6E20657869746F00000018
:4067C0004D696469656E646F00000000202020005469656D706F2072657374616E74653A20256400496E74656E746F732072657374616E7465733A2564000000646F200036
:40680000646F230072652000726523006D6920006661200066612300736F6C2000000000736F6C23000000006C61200070313A257370323A257370333A25730050756572E6
:40684000746120616269657274610000507565727461206365727261646100005472616D70696C6C6120616269657274610000005472616D70696C6C612063657272616413
:4068800061000000456E206E756D65726F20646520696E74656E746F730A0D56616C6F72206E6F206E756D657269636F00000000436F756E74446F776E20616A75737461AE
:4068C000646F0000436F6E74726173656E6961206D7579206C61726761000000436F6E74726173656E696120636F727461000000416A75737461646120436F6E74726173D5
:40690000656E696100000000496E74656E746F7320416A75737461646F730000507565727461204162696572746100005472616D70696C6C612041626965727461000000D1
:40694000507565727461204365727261646100005472616D70696C6C61204365727261646100000050756C7361722053207061726120736567756972000000000D51004061
:40698000005B00400D510040005B00403D510040005B00400110022004400000035B00402443004040000000C8490040190020510040100040510040300000000140001021
:4069C00000140140000800400140000A004C0140000200500140200060520040680900480600000065787000706F770000000000000000000000E03F000000000000E0BF5D
:406A0000763C7935EF39EA3D763C7935EF39EABD0000E0FE422EE63F0000E0FE422EE6BF000000000000304300000000000030C34300494E4600696E66004E414E006E61A3
:406A40006E00300030313233343536373839414243444546003031323334353637383961626364656600496E66696E697479004E614E00504F534958002E0000000000006C
:406A8000000000000000F03F000000000000244000000000000059400000000000408F40000000000088C34000000000006AF8400000000080842E4100000000D012634175
:406AC0000000000084D797410000000065CDCD41000000205FA00242000000E876483742000000A2941A6D42000040E59C30A2420000901EC4BCD64200003426F56B0C437E
:406B00000080E03779C3414300A0D8855734764300C84E676DC1AB43003D9160E458E143408CB5781DAF154450EFE2D6E41A4B4492D54D06CFF08044F64AE1C7022DB544A7
:406B4000B49DD9794378EA4405000000190000007D000000000000000080E03779C34143176E05B5B5B89346F5F93FE9034F384D321D30F94877825A3CBF737FDD4F15756F
:406B8000232D302B2000686C4C0065666745464700000000F8B500BFF8BC08BC9E4670474D0000009D100000F8B500BFF8BC08BC9E46704729000000C86B0000C880FF1F2C
:406BC000B80000006000000000000000E081FF1F0000E02EC05D00001800000000366E01FF01FF010000000000000000000000000000000000000000000000000000000016
:406C000000000000306A00000000000000000000000000000000000000000000000000000000000000000000000000000000000000000000000000000000000000000000BA
:406C400000000000E480FF1F796A0000856B0000856B0000856B0000856B0000856B0000856B0000856B0000856B0000856B0000FFFFFFFFFFFFFFFFFFFFFFFFFFFF00004D
:406C800000000000000000000000000000000000000000000000000000000000000000000000000000000000000000000000000000000000000000000000000000000000D4
:406CC0000000000000000000000000000000000000000000000000000000000000000000000000000000000000000000000000000000000000000000000000000000000094
:406D00000000000000000000000000000000000000000000000000000000000000000000000000000000000000000000000000000000000000000000000000000000000053
:406D40000000000000000000000000000000000000000000000000000000000000000000000000000000000000000000000000000000000000000000000000000000000013
:020000040003F7
:0200000480007A
:400000000252004003640040046500400101014001030140530401403005014061060140470701405208014030090140010F01404E14014036150140501601403C1701403F
:40004000631801404A190140441A0140461B014005400140054101400A42014007430140044401400246014001470140104801401A4901400C4C01400D4D01400A50014013
:400080000251014078017903840F850D8972850D870D880F8B388C10942001030602070408010F07120317021B041E011F07210122032B012C033303340337043F404030C6
:4000C000410149FF4AFF4BFF4DA04F04501854035604580459045A045B045C115D195F05604062C06440654066C068C06AC06CC06EC08301860188019B01A401B501B601AE
:40010000B908BF14C020C104C5D0C610C720C83AC9FFCAFFCBFFCDAFCE0FCF04D018D405D804D904DA04DB04DC09DD99DF01E040E2C0E440E540E6C0E8C0EAC0ECC0EEC0DC
:40014000000401200608072008400B8010801202162018041F802244242027082840292030A032043720380439023B803E0241084202450147204F015501562A59055AA0AC
:400180005C405F096340790287409420C066C209C429CA05CC2ECE8BD0AAD6DFD801DE01001001080206030709010B020C040D0F0E081304180619071A191B08201F240128
:4001C00025022602270128092A06330F341F40534104420249FF4AFF4BFF4F015018580459045A045C115D015F016040624064406540668068806A806C806E80821E86015D
:4002000087018B018C1E8F019201940A961498069A189F01A201A806AA18AC0AAE14B101B21EB601BE40C046C105C202C5ECC620C80BC9FFCAFFCBFFCD83CE03CF01D018B5
:40024000D293D804D904DA04DB04DC11DD11DF01E040E240E440E540E680E880EA80EC80EE800004010302020502070209240A400B800D2010881140150217181A221D2058
:400280001F20210322022340250427102F20308032013301371238043A103B803D013E103F404008430144084502461049054A024B204E01502052105310680869406A1068
:4002C0006B0A70807240900494409502962097809A289C409D259F20A4A0A508A602AF80C09DC24EC47BCA40CCA8CEBED0E5D21C03080406050A06010704080109030A0680
:400300000B040D030E010F0410071305140618061A011C041D031F0C2402310F34073A203B02580459045C445F01801182068304850289028D0C8E0C90119102920E940C45
:400340009501961399089A089C209D0C9E03A101A501A901B030B101B20FB30CB702B802B908BA08BF05C003C640C9FFCA07CBFFCC40CD20CEF0CF05D008D602D713D8040A
:40038000D904DA04DB04DC44DD44DF01E040E1A8E240E32003420514070209200A600B020E150F8017081A201B071E041F20210422012302274029102BE03104321033411C
:4003C00036023740388039143B023C203E403F0A41044B0251205A0269146B017211730C7E027F01C0E9C2FFC420CA07CC9FCEFFD002D601E44011011C011D0125012C01DB
:40040000310132014020410649FF4AFF4BFF4DA04F0450185280580459045A045B045C225D925F01604062C06440654066C068C06AC06CC06EC0850286028902900293017B
:400440009C02A704AB04AE01B202B301B401B504B702BF10C020C106C5D0C601C702C836C9FFCAFFCBFFCDAFCE0FCF04D018D280D405D804D904DA04DB04DC92DD22DF0150
